:100000000C945E000C9486000C9486000C94860080
:100010000C9486000C9486000C9486000C94860048
:100020000C9486000C9486000C9486000C941201AB
:100030000C9486000C9486000C9486000C94860028
:100040000C9441030C9486000C94AB040C94EE04C5
:100050000C9486000C9486000C9486000C94860008
:100060000C9486000C94860000000007000201003A
:100070000003040600000000000000000102040864
:100080001020408001020408102001020408102002
:10009000040404040404040402020202020203032E
:1000A0000303030300000000250028002B000000CC
:1000B0000000240027002A009C00B10511241FBE67
:1000C000CFEFD8E0DEBFCDBF11E0A0E0B1E0E0E1CE
:1000D000FFE002C005900D92A631B107D9F721E0EB
:1000E000A6E1B1E001C01D92A53FB207E1F710E023
:1000F000CEE5D0E004C02197FE010E948007CC35F8
:10010000D107C9F70E94EC050C9486070C940000F7
:1001100040E052EC61E070E08BE491E00E94290540
:1001200063E070E089E191E00E94710262E070E0BA
:1001300086E191E00C94710289E191E00E94D30183
:1001400086E191E00C94D301CF93DF938BE491E0AF
:100150000E94110402970CF04DC06091010170E003
:1001600080E090E00E94570628E533E740E85BE333
:100170000E94E50620E030E04AE754E40E94E506EC
:100180000E942106C0EDD7E0C61BD70BD093050116
:10019000C09304016091000170E080E090E00E9453
:1001A000570628E533E740E85BE30E94E50620E0D8
:1001B00030E04AE754E40E94E5060E9421066851B7
:1001C0007C4F7093030160930201BE0189E191E0CD
:1001D0000E947702609102017091030186E191E033
:1001E0000E94770261E070E080E090E0DF91CF91C3
:1001F0000C94B0038BE491E00E943D0480930101D4
:100200008BE491E00E943D04809300018BE491E037
:100210000E941104892B09F4A0CF8BE491E00E9485
:100220003D04F4CF1F920F920FB60F9211242F931B
:100230003F934F935F936F937F938F939F93AF936E
:10024000BF93EF93FF9380911D0187FF05C010922C
:100250008500109284001BC020911D01022E000C0D
:10026000330B80911C0190E02817390784F48091AA
:100270001D01082E000C990BFC01EE0FFF1F8E0FC5
:100280009F1FFC01E25EFE4F808186FD15C08091BC
:100290001D018F5F80931D0120911D01022E000C16
:1002A000330B80911C0190E028173907C4F480912A
:1002B0001D018C3064F113C080911D01082E000CCB
:1002C000990BFC01EE0FFF1F8E0F9F1FFC01E25EDA
:1002D000FE4F808160E08F730E941103D8CF809120
:1002E000840090918500049680349C4918F480E441
:1002F0009CE905C0809184009091850004969093BC
:100300008900809388008FEF80931D013BC020916E
:1003100084003091850080911D01082E000C990BFE
:10032000FC01EE0FFF1F8E0F9F1FFC01E25EFE4FD0
:1003300081819281820F931F90938900809388001E
:1003400080911D01082E000C990BFC01EE0FFF1F80
:100350008E0F9F1FFC01E25EFE4F808186FF12C060
:1003600080911D01082E000C990BFC01EE0FFF1F60
:100370008E0F9F1FFC01E25EFE4F808161E08F7354
:100380000E941103FF91EF91BF91AF919F918F91C7
:100390007F916F915F914F913F912F910F900FBE81
:1003A0000F901F901895FC0190911C019C30A0F4B7
:1003B00081E0890F80931C019083892F90E0FC01DC
:1003C000EE0FFF1F8E0F9F1FFC01E25EFE4F88EBBA
:1003D0009BE09283818308958FEF80830895DF925D
:1003E000EF92FF920F931F93CF93DF93EC01D62EE2
:1003F0007A01890188818C3008F06AC061E08D2D16
:100400000E94D5028881E82FF0E09F01220F331F60
:10041000E20FF31FE25EFE4F9D2D9F732081207C33
:10042000D22ED92AD08260E272E0AB014E195F0968
:1004300057FF02C04D5F5F4F5595479555954795BE
:10044000498340E659E09A01201B310B37FF02C077
:100450002D5F3F4F35952795359527952A836CE07D
:100460000E9452079CE0899FB001112440E050E0B7
:100470009A01260F371FF901EE0FFF1F2E0F3F1FA6
:10048000F901E25EFE4F908196FD16C04F5F5F4F0F
:100490004C30510569F781110FC01092800082E045
:1004A000809381001092850010928400B19A80910F
:1004B0006F00826080936F00E881F0E0CF01880FC9
:1004C000991FE80FF91FE25EFE4F808180648083F0
:1004D0008881DF91CF911F910F91FF90EF90DF9076
:1004E000089520E639E040E252E00C94EF01FC016F
:1004F00090819C3080F5818128E830E0281B31090B
:1005000087FD3395220F331F220F331F62177307A6
:100510007CF0828128E532E0281B310987FD339584
:10052000220F331F220F331F621773070CF49B0136
:100530004FB7F894892F90E0FC01EE0FFF1F8E0F4C
:100540009F1FFC01E25EFE4F22503109220F331F34
:10055000328321834FBF0895833081F028F48130A6
:1005600099F08230A1F008958630A9F08730B9F073
:100570008430D1F4809180008F7D03C08091800011
:100580008F7780938000089584B58F7702C084B5FB
:100590008F7D84BD08958091B0008F7703C08091D6
:1005A000B0008F7D8093B0000895CF93DF9390E0EB
:1005B000FC01E458FF4F2491FC01E057FF4F849168
:1005C000882361F190E0880F991FFC01E255FF4FED
:1005D000C591D491FC01EC55FF4FA591B4916111E7
:1005E00009C09FB7F8948881209582238883EC9175
:1005F0002E230BC0623061F49FB7F8943881822FAC
:10060000809583238883EC912E2B2C939FBF06C06B
:100610008FB7F894E8812E2B28838FBFDF91CF917D
:1006200008951F93CF93DF93282F30E0F901E85905
:10063000FF4F8491F901E458FF4FD491F901E0573D
:10064000FF4FC491CC23C9F0162F81110E94AC0238
:10065000EC2FF0E0EE0FFF1FEC55FF4FA591B4918A
:100660008FB7F894111105C09C91ED2FE095E92307
:1006700002C0EC91ED2BEC938FBFDF91CF911F91D6
:1006800008951F920F920FB60F9211242F933F934C
:100690008F939F93AF93BF938091430190914401B7
:1006A000A0914501B09146013091420123E0230F12
:1006B0002D3720F40196A11DB11D05C026E8230F9A
:1006C0000296A11DB11D2093420180934301909396
:1006D0004401A0934501B093460180914701909158
:1006E0004801A0914901B0914A010196A11DB11D97
:1006F0008093470190934801A0934901B0934A0128
:10070000BF91AF919F918F913F912F910F900FBE0D
:100710000F901F9018953FB7F894809147019091E2
:100720004801A0914901B0914A0126B5A89B05C096
:100730002F3F19F00196A11DB11D3FBFBA2FA92F60
:10074000982F8827820F911DA11DB11DBC01CD01DD
:1007500042E0660F771F881F991F4A95D1F70895C9
:10076000CF92DF92EF92FF92CF93DF936B017C01E8
:100770000E948B03EB01C114D104E104F10479F070
:100780000E948B036C1B7D0B683E7340A0F381E0DD
:10079000C81AD108E108F108C851DC4FECCFDF914D
:1007A000CF91FF90EF90DF90CF900895789484B52B
:1007B000826084BD84B5816084BD85B5826085BD5D
:1007C00085B5816085BDEEE6F0E080818160808343
:1007D000E1E8F0E010828081826080838081816026
:1007E0008083E0E8F0E0808181608083E1EBF0E0ED
:1007F000808184608083E0EBF0E080818160808391
:10080000EAE7F0E080818460808380818260808379
:100810008081816080838081806880831092C100A4
:100820000895FC0124853585F901E05CFF4F808146
:100830009181329620813181821B930B8F7399278E
:100840000895DC011C96ED91FC911D97DF01A05CE1
:10085000BF4F2D913C91119712968D919C911197BC
:100860002817390739F08D919C91E80FF91F808185
:1008700090E008958FEF9FEF0895FC01A485B58562
:10088000FD01E05CFF4F20813181329680819181B2
:100890002817390779F080819181A80FB91F8C91B1
:1008A000208131812F5F3F4F2F7333273183208386
:1008B00090E008958FEF9FEF0895FC0181A18823B8
:1008C00029F0A489B5898C9186FFFBCF11A20895E8
:1008D0000F931F93CF93DF93FC01A685B7858D01FE
:1008E000005C1F4FE8018881998101968F739927D9
:1008F000AD014E5B5F4FEA01288139818217930772
:10090000D1F3E80128813981A20FB31F6C93A6852A
:10091000B785A05CBF4F11969C938E93A689B7892B
:100920002C9181E090E0078C02C0880F991F0A94F7
:10093000E2F7822B8C9381E081A30488F589E02D76
:1009400080818064808381E090E0DF91CF911F916E
:100950000F91089508951F920F920FB60F921124D0
:100960002F934F935F938F939F93EF93FF93809178
:10097000C00082FD1CC02091C6008091F1019091C1
:10098000F20101968F7399274091F3015091F40180
:100990008417950771F0E091F101F091F201EF54A5
:1009A000FE4F20839093F2018093F10102C0809169
:1009B000C600FF91EF919F918F915F914F912F9181
:1009C0000F900FBE0F901F9018958BE491E00E943E
:1009D0001104892B11F00C94AA0408951F920F9210
:1009E0000FB60F9211242F933F938F939F93EF9302
:1009F000FF932091AD013091AE018091AF019091B4
:100A0000B0012817390731F48091C1008F7D8093A0
:100A1000C10014C0E091AF01F091B001E359FE4F65
:100A200020818091AF019091B00101968F73992739
:100A30009093B0018093AF012093C600FF91EF9196
:100A40009F918F913F912F910F900FBE0F901F900C
:100A50001895CF92DF92EF92FF920F931F93CF934F
:100A6000DF93EC016A017B014115514E610571056F
:100A700009F1EC89FD8981E090E008A002C0880FAF
:100A8000991F0A94E2F7808360E079E08DE390E0BB
:100A9000A70196010E945E0789019A010150110980
:100AA0002109310936952795179507959801011564
:100AB0001041A8F0EC89FD89108260E874E88EE1AD
:100AC00090E0A70196010E945E07DA01C901019733
:100AD000A109B109B695A795979587959C01E889D5
:100AE000F9893083EA89FB89208319A2EE89FF897D
:100AF000408181E090E09C010C8C02C0220F331FEA
:100B00000A94E2F7242B2083EE89FF8940819C011F
:100B10000D8C02C0220F331F0A94E2F7242B20838E
:100B2000EE89FF8940819C010E8C02C0220F331F89
:100B30000A94E2F7242B2083EE89FF8920810F8C11
:100B400002C0880F991F0A94E2F780958223808360
:100B5000DF91CF911F910F91FF90EF90DF90CF9099
:100B60000895EBE4F1E01382128288EE93E0A0E0B6
:100B7000B0E084839583A683B7838AE091E0918374
:100B8000808381EB91E0958784878DE691E097875C
:100B9000868785EC90E0918B808B84EC90E0938B42
:100BA000828B80EC90E0958B848B81EC90E0978B2E
:100BB000868B82EC90E0918F808F86EC90E0938F13
:100BC000828F84E0848F83E0858F87E0868F85E045
:100BD000878F81E080A308950E94D6030E94880039
:100BE000C5EED4E00E94A4002097E1F30E94E50442
:100BF000F9CFCF92DF92EF92FF920F931F93CF9393
:100C0000DF936C01EB017B01E40EF51E00E010E0C8
:100C1000CE15DF0561F06991D601ED91FC9101904F
:100C2000F081E02DC6010995080F191FF1CFC80109
:100C3000DF91CF911F910F91FF90EF90DF90CF90B8
:100C400008950E9428066894B1110C94DF06089557
:100C50000E94C40688F09F5798F0B92F9927B75182
:100C6000B0F0E1F0660F771F881F991F1AF0BA9550
:100C7000C9F714C0B13091F00E94DE06B1E00895CA
:100C80000C94DE06672F782F8827B85F39F0B93FBC
:100C9000CCF3869577956795B395D9F73EF4909503
:100CA0008095709561957F4F8F4F9F4F0895E89481
:100CB00009C097FB3EF490958095709561957F4FA4
:100CC0008F4F9F4F9923A9F0F92F96E9BB27939552
:100CD000F695879577956795B795F111F8CFFAF462
:100CE000BB0F11F460FF1BC06F5F7F4F8F4F9F4F93
:100CF00016C0882311F096E911C0772321F09EE8F1
:100D0000872F762F05C0662371F096E8862F70E056
:100D100060E02AF09A95660F771F881FDAF7880F30
:100D20009695879597F9089597F99F6780E870E001
:100D300060E008959FEF80EC089500240A94161651
:100D4000170618060906089500240A9412161306B9
:100D5000140605060895092E0394000C11F4882347
:100D600052F0BB0F40F4BF2B11F460FF04C06F5F63
:100D70007F4F8F4F9F4F089557FD9058440F551F39
:100D800059F05F3F71F04795880F97FB991F61F00D
:100D90009F3F79F087950895121613061406551F84
:100DA000F2CF4695F1DF08C0161617061806991FF0
:100DB000F1CF86957105610508940895E894BB27E5
:100DC00066277727CB0197F908950E94F8060C94BF
:100DD000AB060E949D0638F00E94A40620F09523E1
:100DE00011F00C9494060C949A0611240C94DF06CE
:100DF0000E94BC0670F3959FC1F3950F50E0551FFC
:100E0000629FF001729FBB27F00DB11D639FAA275F
:100E1000F00DB11DAA1F649F6627B00DA11D661FAE
:100E2000829F2227B00DA11D621F739FB00DA11DCF
:100E3000621F839FA00D611D221F749F3327A00D89
:100E4000611D231F849F600D211D822F762F6A2F25
:100E500011249F5750409AF0F1F088234AF0EE0F8A
:100E6000FF1FBB1F661F771F881F91505040A9F7B7
:100E70009E3F510580F00C9494060C94DF065F3F72
:100E8000E4F3983ED4F3869577956795B795F795F3
:100E9000E7959F5FC1F7FE2B880F911D969587956B
:100EA00097F90895991B79E004C0991F961708F0E7
:100EB000961B881F7A95C9F780950895A1E21A2E8E
:100EC000AA1BBB1BFD010DC0AA1FBB1FEE1FFF1FEE
:100ED000A217B307E407F50720F0A21BB30BE40B3E
:100EE000F50B661F771F881F991F1A9469F7609585
:100EF0007095809590959B01AC01BD01CF0108953F
:100F0000EE0FFF1F0590F491E02D0994F894FFCFA8
:100F10007F7FDC05DC05000000006804F905110492
:060F20003D0421045D0404
:00000001FF
